{
  "_format": "hh-sol-artifact-1",
  "contractName": "TransparencyVerifier",
  "sourceName": "contracts/TransparencyVerifier.sol",
  "abi": [
    {
      "inputs": [
        {
          "internalType": "address",
          "name": "_donationRegistry",
          "type": "address"
        }
      ],
      "stateMutability": "nonpayable",
      "type": "constructor"
    },
    {
      "inputs": [],
      "name": "AccessControlBadConfirmation",
      "type": "error"
    },
    {
      "inputs": [
        {
          "internalType": "address",
          "name": "account",
          "type": "address"
        },
        {
          "internalType": "bytes32",
          "name": "neededRole",
          "type": "bytes32"
        }
      ],
      "name": "AccessControlUnauthorizedAccount",
      "type": "error"
    },
    {
      "anonymous": false,
      "inputs": [
        {
          "indexed": true,
          "internalType": "bytes32",
          "name": "merkleRoot",
          "type": "bytes32"
        },
        {
          "indexed": false,
          "internalType": "uint256",
          "name": "donationCount",
          "type": "uint256"
        },
        {
          "indexed": false,
          "internalType": "bool",
          "name": "isValid",
          "type": "bool"
        },
        {
          "indexed": false,
          "internalType": "address",
          "name": "verifier",
          "type": "address"
        },
        {
          "indexed": false,
          "internalType": "uint256",
          "name": "timestamp",
          "type": "uint256"
        }
      ],
      "name": "BatchVerified",
      "type": "event"
    },
    {
      "anonymous": false,
      "inputs": [
        {
          "indexed": true,
          "internalType": "string",
          "name": "donationId",
          "type": "string"
        },
        {
          "indexed": false,
          "internalType": "bool",
          "name": "isValid",
          "type": "bool"
        },
        {
          "indexed": false,
          "internalType": "uint256",
          "name": "totalTransactions",
          "type": "uint256"
        },
        {
          "indexed": false,
          "internalType": "uint256",
          "name": "issues",
          "type": "uint256"
        },
        {
          "indexed": false,
          "internalType": "uint256",
          "name": "timestamp",
          "type": "uint256"
        }
      ],
      "name": "ChainVerified",
      "type": "event"
    },
    {
      "anonymous": false,
      "inputs": [
        {
          "indexed": true,
          "internalType": "bytes32",
          "name": "role",
          "type": "bytes32"
        },
        {
          "indexed": true,
          "internalType": "bytes32",
          "name": "previousAdminRole",
          "type": "bytes32"
        },
        {
          "indexed": true,
          "internalType": "bytes32",
          "name": "newAdminRole",
          "type": "bytes32"
        }
      ],
      "name": "RoleAdminChanged",
      "type": "event"
    },
    {
      "anonymous": false,
      "inputs": [
        {
          "indexed": true,
          "internalType": "bytes32",
          "name": "role",
          "type": "bytes32"
        },
        {
          "indexed": true,
          "internalType": "address",
          "name": "account",
          "type": "address"
        },
        {
          "indexed": true,
          "internalType": "address",
          "name": "sender",
          "type": "address"
        }
      ],
      "name": "RoleGranted",
      "type": "event"
    },
    {
      "anonymous": false,
      "inputs": [
        {
          "indexed": true,
          "internalType": "bytes32",
          "name": "role",
          "type": "bytes32"
        },
        {
          "indexed": true,
          "internalType": "address",
          "name": "account",
          "type": "address"
        },
        {
          "indexed": true,
          "internalType": "address",
          "name": "sender",
          "type": "address"
        }
      ],
      "name": "RoleRevoked",
      "type": "event"
    },
    {
      "anonymous": false,
      "inputs": [
        {
          "indexed": true,
          "internalType": "string",
          "name": "donationId",
          "type": "string"
        },
        {
          "indexed": false,
          "internalType": "uint256",
          "name": "oldScore",
          "type": "uint256"
        },
        {
          "indexed": false,
          "internalType": "uint256",
          "name": "newScore",
          "type": "uint256"
        },
        {
          "indexed": false,
          "internalType": "uint256",
          "name": "timestamp",
          "type": "uint256"
        }
      ],
      "name": "TransparencyScoreUpdated",
      "type": "event"
    },
    {
      "inputs": [],
      "name": "ADMIN_ROLE",
      "outputs": [
        {
          "internalType": "bytes32",
          "name": "",
          "type": "bytes32"
        }
      ],
      "stateMutability": "view",
      "type": "function"
    },
    {
      "inputs": [],
      "name": "DEFAULT_ADMIN_ROLE",
      "outputs": [
        {
          "internalType": "bytes32",
          "name": "",
          "type": "bytes32"
        }
      ],
      "stateMutability": "view",
      "type": "function"
    },
    {
      "inputs": [],
      "name": "VERIFIER_ROLE",
      "outputs": [
        {
          "internalType": "bytes32",
          "name": "",
          "type": "bytes32"
        }
      ],
      "stateMutability": "view",
      "type": "function"
    },
    {
      "inputs": [
        {
          "internalType": "uint256",
          "name": "",
          "type": "uint256"
        }
      ],
      "name": "allMerkleRoots",
      "outputs": [
        {
          "internalType": "bytes32",
          "name": "",
          "type": "bytes32"
        }
      ],
      "stateMutability": "view",
      "type": "function"
    },
    {
      "inputs": [
        {
          "internalType": "string[]",
          "name": "donationIds",
          "type": "string[]"
        },
        {
          "internalType": "bytes32[][]",
          "name": "merkleProofs",
          "type": "bytes32[][]"
        }
      ],
      "name": "batchVerifyDonations",
      "outputs": [
        {
          "internalType": "bytes32",
          "name": "",
          "type": "bytes32"
        }
      ],
      "stateMutability": "nonpayable",
      "type": "function"
    },
    {
      "inputs": [],
      "name": "donationRegistry",
      "outputs": [
        {
          "internalType": "contract DonationRegistry",
          "name": "",
          "type": "address"
        }
      ],
      "stateMutability": "view",
      "type": "function"
    },
    {
      "inputs": [
        {
          "internalType": "bytes32",
          "name": "merkleRoot",
          "type": "bytes32"
        }
      ],
      "name": "getBatchVerification",
      "outputs": [
        {
          "components": [
            {
              "internalType": "bytes32",
              "name": "merkleRoot",
              "type": "bytes32"
            },
            {
              "internalType": "string[]",
              "name": "donationIds",
              "type": "string[]"
            },
            {
              "internalType": "uint256",
              "name": "createdAt",
              "type": "uint256"
            },
            {
              "internalType": "address",
              "name": "verifier",
              "type": "address"
            },
            {
              "internalType": "bool",
              "name": "isValid",
              "type": "bool"
            }
          ],
          "internalType": "struct TransparencyVerifier.MerkleVerification",
          "name": "",
          "type": "tuple"
        }
      ],
      "stateMutability": "view",
      "type": "function"
    },
    {
      "inputs": [
        {
          "internalType": "bytes32",
          "name": "role",
          "type": "bytes32"
        }
      ],
      "name": "getRoleAdmin",
      "outputs": [
        {
          "internalType": "bytes32",
          "name": "",
          "type": "bytes32"
        }
      ],
      "stateMutability": "view",
      "type": "function"
    },
    {
      "inputs": [
        {
          "internalType": "string",
          "name": "donationId",
          "type": "string"
        }
      ],
      "name": "getTransparencyScore",
      "outputs": [
        {
          "internalType": "uint256",
          "name": "",
          "type": "uint256"
        }
      ],
      "stateMutability": "view",
      "type": "function"
    },
    {
      "inputs": [
        {
          "internalType": "string",
          "name": "donationId",
          "type": "string"
        }
      ],
      "name": "getVerificationResult",
      "outputs": [
        {
          "components": [
            {
              "internalType": "bool",
              "name": "isValid",
              "type": "bool"
            },
            {
              "internalType": "uint256",
              "name": "totalTransactions",
              "type": "uint256"
            },
            {
              "internalType": "uint256",
              "name": "brokenLinks",
              "type": "uint256"
            },
            {
              "internalType": "uint256",
              "name": "invalidHashes",
              "type": "uint256"
            },
            {
              "internalType": "string[]",
              "name": "issues",
              "type": "string[]"
            },
            {
              "internalType": "uint256",
              "name": "verifiedAt",
              "type": "uint256"
            }
          ],
          "internalType": "struct TransparencyVerifier.VerificationResult",
          "name": "",
          "type": "tuple"
        }
      ],
      "stateMutability": "view",
      "type": "function"
    },
    {
      "inputs": [
        {
          "internalType": "bytes32",
          "name": "role",
          "type": "bytes32"
        },
        {
          "internalType": "address",
          "name": "account",
          "type": "address"
        }
      ],
      "name": "grantRole",
      "outputs": [],
      "stateMutability": "nonpayable",
      "type": "function"
    },
    {
      "inputs": [
        {
          "internalType": "address",
          "name": "account",
          "type": "address"
        }
      ],
      "name": "grantVerifierRole",
      "outputs": [],
      "stateMutability": "nonpayable",
      "type": "function"
    },
    {
      "inputs": [
        {
          "internalType": "bytes32",
          "name": "role",
          "type": "bytes32"
        },
        {
          "internalType": "address",
          "name": "account",
          "type": "address"
        }
      ],
      "name": "hasRole",
      "outputs": [
        {
          "internalType": "bool",
          "name": "",
          "type": "bool"
        }
      ],
      "stateMutability": "view",
      "type": "function"
    },
    {
      "inputs": [
        {
          "internalType": "bytes32",
          "name": "",
          "type": "bytes32"
        }
      ],
      "name": "merkleVerifications",
      "outputs": [
        {
          "internalType": "bytes32",
          "name": "merkleRoot",
          "type": "bytes32"
        },
        {
          "internalType": "uint256",
          "name": "createdAt",
          "type": "uint256"
        },
        {
          "internalType": "address",
          "name": "verifier",
          "type": "address"
        },
        {
          "internalType": "bool",
          "name": "isValid",
          "type": "bool"
        }
      ],
      "stateMutability": "view",
      "type": "function"
    },
    {
      "inputs": [
        {
          "internalType": "bytes32",
          "name": "role",
          "type": "bytes32"
        },
        {
          "internalType": "address",
          "name": "callerConfirmation",
          "type": "address"
        }
      ],
      "name": "renounceRole",
      "outputs": [],
      "stateMutability": "nonpayable",
      "type": "function"
    },
    {
      "inputs": [
        {
          "internalType": "bytes32",
          "name": "role",
          "type": "bytes32"
        },
        {
          "internalType": "address",
          "name": "account",
          "type": "address"
        }
      ],
      "name": "revokeRole",
      "outputs": [],
      "stateMutability": "nonpayable",
      "type": "function"
    },
    {
      "inputs": [
        {
          "internalType": "address",
          "name": "account",
          "type": "address"
        }
      ],
      "name": "revokeVerifierRole",
      "outputs": [],
      "stateMutability": "nonpayable",
      "type": "function"
    },
    {
      "inputs": [
        {
          "internalType": "bytes4",
          "name": "interfaceId",
          "type": "bytes4"
        }
      ],
      "name": "supportsInterface",
      "outputs": [
        {
          "internalType": "bool",
          "name": "",
          "type": "bool"
        }
      ],
      "stateMutability": "view",
      "type": "function"
    },
    {
      "inputs": [],
      "name": "totalVerifications",
      "outputs": [
        {
          "internalType": "uint256",
          "name": "",
          "type": "uint256"
        }
      ],
      "stateMutability": "view",
      "type": "function"
    },
    {
      "inputs": [
        {
          "internalType": "string",
          "name": "",
          "type": "string"
        }
      ],
      "name": "transparencyScores",
      "outputs": [
        {
          "internalType": "uint256",
          "name": "",
          "type": "uint256"
        }
      ],
      "stateMutability": "view",
      "type": "function"
    },
    {
      "inputs": [
        {
          "internalType": "address",
          "name": "_newRegistry",
          "type": "address"
        }
      ],
      "name": "updateDonationRegistry",
      "outputs": [],
      "stateMutability": "nonpayable",
      "type": "function"
    },
    {
      "inputs": [
        {
          "internalType": "string",
          "name": "",
          "type": "string"
        }
      ],
      "name": "verificationResults",
      "outputs": [
        {
          "internalType": "bool",
          "name": "isValid",
          "type": "bool"
        },
        {
          "internalType": "uint256",
          "name": "totalTransactions",
          "type": "uint256"
        },
        {
          "internalType": "uint256",
          "name": "brokenLinks",
          "type": "uint256"
        },
        {
          "internalType": "uint256",
          "name": "invalidHashes",
          "type": "uint256"
        },
        {
          "internalType": "uint256",
          "name": "verifiedAt",
          "type": "uint256"
        }
      ],
      "stateMutability": "view",
      "type": "function"
    },
    {
      "inputs": [
        {
          "internalType": "string",
          "name": "donationId",
          "type": "string"
        },
        {
          "internalType": "bytes32",
          "name": "merkleRoot",
          "type": "bytes32"
        },
        {
          "internalType": "bytes32[]",
          "name": "proof",
          "type": "bytes32[]"
        }
      ],
      "name": "verifyAgainstMerkleRoot",
      "outputs": [
        {
          "internalType": "bool",
          "name": "",
          "type": "bool"
        }
      ],
      "stateMutability": "view",
      "type": "function"
    },
    {
      "inputs": [
        {
          "internalType": "string",
          "name": "donationId",
          "type": "string"
        }
      ],
      "name": "verifyTransactionChain",
      "outputs": [
        {
          "components": [
            {
              "internalType": "bool",
              "name": "isValid",
              "type": "bool"
            },
            {
              "internalType": "uint256",
              "name": "totalTransactions",
              "type": "uint256"
            },
            {
              "internalType": "uint256",
              "name": "brokenLinks",
              "type": "uint256"
            },
            {
              "internalType": "uint256",
              "name": "invalidHashes",
              "type": "uint256"
            },
            {
              "internalType": "string[]",
              "name": "issues",
              "type": "string[]"
            },
            {
              "internalType": "uint256",
              "name": "verifiedAt",
              "type": "uint256"
            }
          ],
          "internalType": "struct TransparencyVerifier.VerificationResult",
          "name": "",
          "type": "tuple"
        }
      ],
      "stateMutability": "nonpayable",
      "type": "function"
    }
  ],
  "bytecode": "0x608034620000ea57601f62002aca38819003918201601f19168301916001600160401b03831184841017620000ef57808492602094604052833981010312620000ea57516001600160a01b03811690819003620000ea578015620000a557600180546001600160a01b0319169190911790556200007c3362000105565b50620000883362000185565b50620000943362000227565b506040516127e59081620002c58239f35b60405162461bcd60e51b815260206004820152601860248201527f496e76616c6964207265676973747279206164647265737300000000000000006044820152606490fd5b600080fd5b634e487b7160e01b600052604160045260246000fd5b6001600160a01b031660008181527fad3228b676f7d3cd4284a5443f17f1962b36e491b30a40b2405849e597ba5fb5602052604081205490919060ff166200018157818052816020526040822081835260205260408220600160ff19825416179055339160008051602062002aaa8339815191528180a4600190565b5090565b6001600160a01b031660008181527f7d7ffb7a348e1c6a02869081a26547b49160dd3df72d1d75a570eb9b698292ec60205260408120549091907fa49807205ce4d355092ef5a8a18f56e8913cf4a201fbe287825b095693c217759060ff166200022257808352826020526040832082845260205260408320600160ff1982541617905560008051602062002aaa833981519152339380a4600190565b505090565b6001600160a01b031660008181527f1da0b5176dfe03406af5a6eed66ca01dda9b45ac4da671c3fa379cb93717ef8160205260408120549091907f0ce23c3e399818cfee81a7ab0880f714e53d7672b08df0fa62f2843416e1ea099060ff166200022257808352826020526040832082845260205260408320600160ff1982541617905560008051602062002aaa833981519152339380a460019056fe608080604052600436101561001357600080fd5b60003560e01c90816301ffc9a714611c93575080630337c06114611c6a578063248a9ca314611c3b5780632f2ff15d14611bfc57806336568abe14611bb55780633f8b1c3f14611b235780635a55977e14611aa857806375b238fc14611a6d578063761382e1146113415780637a1f8916146112e857806391d148541461129b57806392f5ae7f146111c1578063a04c9bba14610f27578063a217fddf146111a5578063a3669aef1461117c578063a466c20914610f83578063a9befe6214610f27578063ac90c14014610f09578063b2e85941146102b2578063cddc911f146101f6578063d547741f146101b5578063e7705db61461018c578063ef0cd250146101635763fe14bab01461012757600080fd5b3461015e57602036600319011261015e5760043560065481101561015e57610150602091611f69565b90546040519160031b1c8152f35b600080fd5b3461015e57600036600319011261015e576001546040516001600160a01b039091168152602090f35b3461015e57600036600319011261015e5760206040516000805160206127908339815191528152f35b3461015e57604036600319011261015e576101f46004356101d4611cfc565b908060005260006020526101ef60016040600020015461207a565b612252565b005b3461015e57602036600319011261015e576004356001600160401b03811161015e5761024a602061022e6102ae933690600401611dba565b6102366122c7565b508160405193828580945193849201611e01565b8101600281520301902060056040519161026383611d12565b60ff8154161515835260018101546020840152600281015460408401526003810154606084015261029660048201612468565b6080840152015460a082015260405191829182611f1a565b0390f35b3461015e57602036600319011261015e576004356001600160401b03811161015e576102e2903690600401611dba565b6102ea6122c7565b506102f3612030565b805115610ece57600154604051636868619f60e11b815260206004820152919060009083906001600160a01b031681806103306024820187611e99565b03915afa918215610ec257600092610c2e575b5081516000916000918060011b81810460021482151715610637576103679061233e565b60009560015b83811061094157505061037f8661233e565b9060005b87811061091257505084159384610909575b604051956103a287611d12565b85151587528360208801526040870152606086015260808501524260a085015260405160208184516103d78183858901611e01565b810160028152030190208451151560ff801983541691161781556020850151600182015560408501516002820155606085015160038201556080850151805190600160401b821161087a576004830154826004850155808310610890575b5060200190600483016000526020600020916000905b82821061075c5750505050600560a086015191015561046b600554612388565b60055560006020850151610754575b8451610732575b6020850151600581106106ef575060198101809111610637575b620151806104ad60a0870151426123b8565b10156106b557600f8101809111610637575b6040850151610681575b60608501516105e7575b9461059e7fe737c89c3697e53bd366561579abf700b1d3186a256d749bba4f2d6c67c82f3b936060936102ae98606481116000146105bd57507f79b7196be7ef57ded98dea75a28ebcaded74f8be6be24080a4df0077be07d3e260806064985b60405160208187516105488183858c01611e01565b8101600481520301902054968a6040516020818161056c8b83815193849201611e01565b810160048152030190205561058086612416565b946040519215158352602083015260408201524288820152a2612416565b936040519182526020820152426040820152a260405191829182611f1a565b60807f79b7196be7ef57ded98dea75a28ebcaded74f8be6be24080a4df0077be07d3e29198610533565b94600f86111561064d57600e1986019586116106375761059e7fe737c89c3697e53bd366561579abf700b1d3186a256d749bba4f2d6c67c82f3b936060936102ae985b93985093509350506104d3565b634e487b7160e01b600052601160045260246000fd5b6102ae955061059e7fe737c89c3697e53bd366561579abf700b1d3186a256d749bba4f2d6c67c82f3b93606093600061062a565b60148111156106ad576013198101908111156104c957634e487b7160e01b600052601160045260246000fd5b5060006104c9565b62093a806106c760a0870151426123b8565b10156104bf57600a8101809111156104bf57634e487b7160e01b600052601160045260246000fd5b600381106107095750600f8101809111610637575b61049b565b60011161049b57600a81018091111561070457634e487b7160e01b600052601160045260246000fd5b601e81018091111561048157634e487b7160e01b600052601160045260246000fd5b50601461047a565b80518051906001600160401b03821161087a5761077986546123c5565b90601f91828111610840575b5060209183116001146107d05792826001949360209386956000926107c5575b5050600019600383901b1c191690841b1787555b0194019101909261044b565b015190508f806107a5565b908660005260206000209160005b601f1985168110610828575083602093600196938796938794601f1981161061080f575b505050811b0187556107b9565b015160001960f88460031b161c191690558f8080610802565b919260206001819286850151815501940192016107de565b61086b90886000526020600020600585808801821c83019360208910610871575b01901c01906123ff565b8d610785565b93508293610861565b634e487b7160e01b600052604160045260246000fd5b600484016000526020600020908382015b81830181106108b1575050610435565b806108be600192546123c5565b806108cb575b50016108a1565b601f9081811184146108e4575050600081555b8c6108c4565b61090060009284845260208420920160051c82018583016123ff565b818355556108de565b80159450610395565b8061092061093c92846123a4565b5161092b82866123a4565b5261093681856123a4565b50612388565b610383565b60e061094d82846123a4565b5101516020815191012081600019810111610637576101006109736000198401856123a4565b5101516020815191012003610bb3575b61098d81836123a4565b51805190610a186040602083015160608401519360e060a082015191015190835195869360206109c68187019a8b815193849201611e01565b85016109db8251809360208085019101611e01565b016109ef8251809360208085019101611e01565b01906020820152610a098251809360208785019101611e01565b01036020810184520182611d7e565b519020604051610a2781611d48565b601081526f181899199a1a9b1b9c1cb0b131b232b360811b602082015260405191610a5183611d63565b60408352604036602085013760005b60208110610b2957505050610100610a7883856123a4565b51015160208151910120906020815191012003610a9e575b610a9990612388565b61036d565b9694610b21610aaf610a9992612388565b96610ab98a6126cf565b610b0c604051917f496e76616c69642068617368206174207472616e73616374696f6e20000000006020840152828151610afc81603c9460208686019101611e01565b810103601c810184520182611d7e565b610b1682876123a4565b5261093681866123a4565b979050610a90565b6001600160f81b0319610b4483831a60041c600f16856126be565b5116818060011b04600214821517156106375760001a610b678260011b866126be565b536001600160f81b0319610b8083831a600f16856126be565b5116908060011b60010160011161063757610bae9160001a610ba88260011b600101876126be565b53612388565b610a60565b9695610bc1610c2891612388565b96610bcb896126cf565b610c1e604051917f42726f6b656e206c696e6b206174207472616e73616374696f6e2000000000006020840152828151610c0e81603b9460208686019101611e01565b810103601b810184520182611d7e565b61092b82866123a4565b96610983565b9091503d806000833e610c418183611d7e565b602082828101031261015e5781516001600160401b03811161015e57818301601f82850101121561015e578083015190610c7a82611e24565b93610c886040519586611d7e565b828552602085019084810160208560051b85840101011161015e57602083820101915b60208560051b85840101018310610cc9575050505050509082610343565b8251906001600160401b03821161015e57610120838601830188850103601f19011261015e5760405191826101208101106001600160401b036101208501111761087a5761012083016040526020818786010101516001600160401b03811161015e57610d429060208a870191848a89010101016122f9565b83526040818786010101516001600160401b03811161015e57610d719060208a870191848a89010101016122f9565b60208401526060818786010101516001600160401b03811161015e57610da39060208a870191848a89010101016122f9565b60408401526080818786010101516001600160401b03811161015e57610dd59060208a870191848a89010101016122f9565b606084015260a0818786010101516001600160401b03811161015e57610e079060208a870191848a89010101016122f9565b6080840152838601810160c081015160a085015260e001516001600160401b03811161015e57610e439060208a870191848a89010101016122f9565b60c0840152610100818786010101516001600160401b03811161015e57610e769060208a870191848a89010101016122f9565b60e084015261012081878601010151916001600160401b03831161015e57602093610eaf8594938580958d8a01928c8b010101016122f9565b6101008201528152019301929050610cab565b6040513d6000823e3d90fd5b60405162461bcd60e51b8152602060048201526013602482015272125b9d985b1a5908191bdb985d1a5bdb881251606a1b6044820152606490fd5b3461015e57600036600319011261015e576020600554604051908152f35b3461015e57602036600319011261015e576004356001600160401b03811161015e57610f706020610f5d81933690600401611dba565b8160405193828580945193849201611e01565b8101600481520301902054604051908152f35b3461015e57606036600319011261015e576001600160401b0360043581811161015e57610fb4903690600401611dba565b906024359060443590811161015e57610fd1903690600401611e3b565b9080600052602092600384526002604060002001541561113f5760405184818351610fff8183858801611e01565b810160028152030190209060405161101681611d12565b60ff8354161515815260019260058482015491888401928352600281015460408501526003810154606085015261104f60048201612468565b608085015201549160a081019280845215611102578493929161108661109492511515915193516040519485938c85019788612545565b03601f198101835282611d7e565b519020936000925b6110ad575b50505060405191148152f35b90919381518510156110fc576110c385836123a4565b5190818110156110e95760005285526110e160406000205b94612388565b91908161109c565b9060005285526110e160406000206110db565b936110a1565b60405162461bcd60e51b8152600481018990526015602482015274111bdb985d1a5bdb881b9bdd081d995c9a599a5959605a1b6044820152606490fd5b60405162461bcd60e51b815260048101859052601560248201527413595c9adb19481c9bdbdd081b9bdd08199bdd5b99605a1b6044820152606490fd5b3461015e57602036600319011261015e576101f4611198611ce6565b6111a0611fb6565b6121b9565b3461015e57600036600319011261015e57602060405160008152f35b3461015e5760208060031936011261015e57600060806040516111e381611d2d565b82815260608482015282604082015282606082015201526004356000526003815260406000206040519061121682611d2d565b8054825261122660018201612468565b8383019081526003600283015492604085019384520154906060840161128160018060a01b0392838516835260ff608088019560a01c161515855260405197889781895251908801525160a0604088015260c0870190611ebe565b935160608601525116608084015251151560a08301520390f35b3461015e57604036600319011261015e576112b4611cfc565b600435600052600060205260406000209060018060a01b0316600052602052602060ff604060002054166040519015158152f35b3461015e57602036600319011261015e5760043560005260036020526080604060002060ff8154916003600282015491015490604051938452602084015260018060a01b038116604084015260a01c1615156060820152f35b3461015e57604036600319011261015e576004356001600160401b03811161015e573660238201121561015e57806004013561137c81611e24565b9161138a6040519384611d7e565b8183526024602084019260051b8201019036821161015e5760248101925b828410611a3e57846024356001600160401b03811161015e573660238201121561015e5780600401356113da81611e24565b916113e86040519384611d7e565b8183526024602084019260051b8201019036821161015e5760248101925b828410611a0f578585611417612030565b8151156119d1578151905103611998576114318151612436565b60019060005b83518110156116b25761144a81856123a4565b51600560206114626040519384815193849201611e01565b820191602081600294858152030190206040519261147f84611d12565b60ff82541615158452600182015460208501528101546040840152600381015460608401526114b060048201612468565b6080840152015460a0820181905215611521575b6114ce82866123a4565b51815115156114f560208401519161108660a0860151604051948593602085019788612545565b51902061150283856123a4565b525115611518575b61151390612388565b611437565b6000925061150a565b50611554600061153183876123a4565b516040518093819263b2e8594160e01b8352602060048401526024830190611e99565b038183305af1908115610ec25760009161156f575b506114c4565b3d9150816000823e6115818282611d7e565b602081838101031261015e578051906001600160401b03821161015e5760c0828201848301031261015e57604051926115b984611d12565b82820151801515810361015e57845281830160208181015190860152604080820151908601526060808201519086015260800151906001600160401b03821161015e57808301601f838686010101121561015e5781848401015161161c81611e24565b9261162a6040519485611d7e565b8184526020840183860160208460051b848a8a010101011161015e576020828888010101905b60208460051b848a8a01010101821061167e57505050505060808401520160a0908101519082015285611569565b81516001600160401b03811161015e576020916116a789848094888e8c850194010101016122f9565b815201910190611650565b506116bc90612574565b906040516116c981611d2d565b8281526020810184815242604083015233606083015282151560808301528360005260036020526040600020908251825551805190600160401b821161087a57600183015482600185015580831061191f575b5060200190600183016000526020600020916000905b828210611801575050505060039060408301516002820155019060018060a01b03606082015116825491608060ff60a01b910151151560a01b16916affffffffffffffffffffff60a81b161717905560065492600160401b84101561087a57608083927faf83b80660d448ad31fd6c4935df566c69ed745ca6e6d57f21819f3065998c70926117c987600160209901600655611f69565b81549060031b9087821b91600019901b19161790555190604051918252151586820152336040820152426060820152a2604051908152f35b80518051906001600160401b03821161087a5761181e86546123c5565b90601f918281116118e5575b50602091831160011461187557928260019493602093869560009261186a575b5050600019600383901b1c191690841b1787555b01940191019092611732565b015190508e8061184a565b908660005260206000209160005b601f19851681106118cd575083602093600196938796938794601f198116106118b4575b505050811b01875561185e565b015160001960f88460031b161c191690558e80806118a7565b91926020600181928685015181550194019201611883565b611910908860005260206000208480870160051c82019260208810611916575b0160051c01906123ff565b8c61182a565b92508192611905565b600184016000526020600020908382015b818301811061194057505061171c565b8061194d600192546123c5565b8061195a575b5001611930565b601f908181118414611973575050600081555b8b611953565b61198f60009284845260208420920160051c82018583016123ff565b8183555561196d565b60405162461bcd60e51b81526020600482015260116024820152704d69736d6174636865642061727261797360781b6044820152606490fd5b60405162461bcd60e51b81526020600482015260166024820152754e6f20646f6e6174696f6e7320746f2076657269667960501b6044820152606490fd5b83356001600160401b03811161015e57602091611a33839260243691870101611e3b565b815201930192611406565b83356001600160401b03811161015e57602091611a62839260243691870101611dba565b8152019301926113a8565b3461015e57600036600319011261015e5760206040517fa49807205ce4d355092ef5a8a18f56e8913cf4a201fbe287825b095693c217758152f35b3461015e57602036600319011261015e576004356001600160401b03811161015e57611adf6020610f5d60a0933690600401611dba565b8101600281520301902060ff815416906001810154906002810154600560038301549201549260405194151585526020850152604084015260608301526080820152f35b3461015e57602036600319011261015e57611b3c611ce6565b611b44611fb6565b6001600160a01b03168015611b70576bffffffffffffffffffffffff60a01b6001541617600155600080f35b60405162461bcd60e51b815260206004820152601860248201527f496e76616c6964207265676973747279206164647265737300000000000000006044820152606490fd5b3461015e57604036600319011261015e57611bce611cfc565b336001600160a01b03821603611bea576101f490600435612252565b60405163334bd91960e11b8152600490fd5b3461015e57604036600319011261015e576101f4600435611c1b611cfc565b90806000526000602052611c3660016040600020015461207a565b612140565b3461015e57602036600319011261015e5760043560005260006020526020600160406000200154604051908152f35b3461015e57602036600319011261015e576101f4611c86611ce6565b611c8e611fb6565b6120a0565b3461015e57602036600319011261015e576004359063ffffffff60e01b821680920361015e57602091637965db0b60e01b8114908115611cd5575b5015158152f35b6301ffc9a760e01b14905083611cce565b600435906001600160a01b038216820361015e57565b602435906001600160a01b038216820361015e57565b60c081019081106001600160401b0382111761087a57604052565b60a081019081106001600160401b0382111761087a57604052565b604081019081106001600160401b0382111761087a57604052565b606081019081106001600160401b0382111761087a57604052565b90601f801991011681019081106001600160401b0382111761087a57604052565b6001600160401b03811161087a57601f01601f191660200190565b81601f8201121561015e57803590611dd182611d9f565b92611ddf6040519485611d7e565b8284526020838301011161015e57816000926020809301838601378301015290565b60005b838110611e145750506000910152565b8181015183820152602001611e04565b6001600160401b03811161087a5760051b60200190565b81601f8201121561015e57803591611e5283611e24565b92611e606040519485611d7e565b808452602092838086019260051b82010192831161015e578301905b828210611e8a575050505090565b81358152908301908301611e7c565b90602091611eb281518092818552858086019101611e01565b601f01601f1916010190565b908082519081815260208091019281808460051b8301019501936000915b848310611eec5750505050505090565b9091929394958480611f0a600193601f198682030187528a51611e99565b9801930193019194939290611edc565b6020815281511515602082015260208201516040820152604082015160608201526060820151608082015260c060a0611f606080850151838386015260e0850190611ebe565b93015191015290565b600654811015611fa05760066000527ff652222313e28459528d920b65115c16c04f3efc82aaedc97be59f3f377c0d3f0190600090565b634e487b7160e01b600052603260045260246000fd5b3360009081527f7d7ffb7a348e1c6a02869081a26547b49160dd3df72d1d75a570eb9b698292ec60205260409020547fa49807205ce4d355092ef5a8a18f56e8913cf4a201fbe287825b095693c217759060ff16156120125750565b6044906040519063e2517d3f60e01b82523360048301526024820152fd5b3360009081527f1da0b5176dfe03406af5a6eed66ca01dda9b45ac4da671c3fa379cb93717ef8160205260409020546000805160206127908339815191529060ff16156120125750565b80600052600060205260406000203360005260205260ff60406000205416156120125750565b6001600160a01b031660008181527f1da0b5176dfe03406af5a6eed66ca01dda9b45ac4da671c3fa379cb93717ef8160205260408120549091906000805160206127908339815191529060ff1661213b57808352826020526040832082845260205260408320600160ff198254161790557f2f8788117e7eff1d82e926ec794901d17c78024a50270940304540a733656f0d339380a4600190565b505090565b9060009180835282602052604083209160018060a01b03169182845260205260ff6040842054161560001461213b57808352826020526040832082845260205260408320600160ff198254161790557f2f8788117e7eff1d82e926ec794901d17c78024a50270940304540a733656f0d339380a4600190565b6001600160a01b031660008181527f1da0b5176dfe03406af5a6eed66ca01dda9b45ac4da671c3fa379cb93717ef8160205260408120549091906000805160206127908339815191529060ff161561213b5780835282602052604083208284526020526040832060ff1981541690557ff6391f5c32d9c69d2a47ea670b442974b53935d1edc7fd64eb21e047a839171b339380a4600190565b9060009180835282602052604083209160018060a01b03169182845260205260ff60408420541660001461213b5780835282602052604083208284526020526040832060ff1981541690557ff6391f5c32d9c69d2a47ea670b442974b53935d1edc7fd64eb21e047a839171b339380a4600190565b604051906122d482611d12565b600060a083828152826020820152826040820152826060820152606060808201520152565b81601f8201121561015e57805161230f81611d9f565b9261231d6040519485611d7e565b8184526020828401011161015e5761233b9160208085019101611e01565b90565b9061234882611e24565b6123556040519182611d7e565b8281528092612366601f1991611e24565b019060005b82811061237757505050565b80606060208093850101520161236b565b60001981146106375760010190565b805115611fa05760200190565b8051821015611fa05760209160051b010190565b9190820391821161063757565b90600182811c921680156123f5575b60208310146123df57565b634e487b7160e01b600052602260045260246000fd5b91607f16916123d4565b81811061240a575050565b600081556001016123ff565b61242e90602060405192828480945193849201611e01565b810103902090565b9061244082611e24565b61244d6040519182611d7e565b828152809261245e601f1991611e24565b0190602036910137565b9081549161247583611e24565b9260409161248583519586611d7e565b81855260009081526020808220938291908188015b8584106124aa5750505050505050565b81518386928954926124bb846123c5565b80825260019480861690811561252957506001146124f1575b506124e3816001960382611d7e565b81520197019301929561249a565b8b8a52838a20955089905b80821061251257508101830194506124e36124d4565b8654838301860152958501958894909101906124fc565b60ff19168584015250151560051b8101830194506124e36124d4565b60209061255d60419694959382815194859201611e01565b0192151560f81b8352600183015260218201520190565b805115612684576001908181511461258d57815b61259b575b6125979150612397565b5190565b80518281111561267e578281018091116126695790826125bd8193821c612436565b916000915b6125cf575b505090612588565b9091928151831015612662578201808311610637578151811015612644576126026125fa84846123a4565b5191836123a4565b5160408051916020830193845281830152815261261e81611d63565b51902061262d83861c856123a4565b525b600282018092116106375783929190836125c2565b5061264f82826123a4565b5161265c83861c856123a4565b5261262f565b92916125c7565b60246000634e487b7160e01b81526011600452fd5b5061258d565b60405162461bcd60e51b8152602060048201526012602482015271139bc81b19585d995cc81c1c9bdd9a59195960721b6044820152606490fd5b908151811015611fa0570160200190565b80156127715780816000925b61275b57506126e982611d9f565b916126f76040519384611d7e565b80835281601f1961270783611d9f565b013660208601375b61271857505090565b6000198101908111610637578091600a91603083830681018091116106375760f81b6001600160f81b03191660001a9061275290866126be565b5304908161270f565b9091612768600a91612388565b929104806126db565b5060405161277e81611d48565b60018152600360fc1b60208201529056fe0ce23c3e399818cfee81a7ab0880f714e53d7672b08df0fa62f2843416e1ea09a26469706673582212207d63dd12cb32a457b75b26fed27ae883e73b60b95837b2a5db18c0c9465128c264736f6c634300081400332f8788117e7eff1d82e926ec794901d17c78024a50270940304540a733656f0d",
  "linkReferences": {},
  "deployedLinkReferences": {}
}